:10000000ABC00000C6C00000C4C00000C2C00000F9
:10001000C0C00000BEC00000BCC00000BAC00000EC
:10002000B8C00000B6C00000DDC40000B2C00000CF
:10003000B0C00000AEC00000ACC00000AAC000000C
:10004000A8C00000A6C00000A4C00000A2C000001C
:10005000A0C000009EC000009CC000009AC000002C
:1000600098C0000096C0000094C0000092C000003C
:1000700090C000008EC000008CC000008AC000004C
:1000800088C0000086C0000084C0000082C000005C
:1000900080C000007EC0000005010906A10105071F
:1000A00019E029E7150025017501950881029501E0
:1000B0007508810105081901290595057501910249
:1000C000950175039101150025650507190029653E
:1000D000950675088100C01201100100000008415A
:1000E0002342000100010200010902290001010070
:1000F000C0320904000002030101000921110100BE
:1001000001223F00070581030800050705020308D7
:1001100000050403090418034400650061006E0033
:100120002000430061006D00650072006100000066
:1001300026034C0055004600410020004B0065009E
:10014000790062006F0061007200640020004400CA
:1001500065006D006F00000011241FBECFEFD0E2DC
:10016000DEBFCDBF11E0A0E0B1E0E6E9FEE000E0D7
:100170000BBF02C007900D92A430B107D9F711E070
:10018000A4E0B1E001C01D92AB31B107E1F7DFD1CE
:1001900080C636CF9BB19F70982B9BB9089584B7CA
:1001A000877F84BF88E10FB6F89480936000109237
:1001B00060000FBE90E080E80FB6F8948093610075
:1001C000909361000FBE84B18F7184B98DB18F7C23
:1001D0008DB985B1806E85B98EB180638EB98AB1D3
:1001E000806F8AB98BB18F708BB9E1D36A98729A9C
:1001F000089580EACFDF81E080930201089580E1D5
:10020000C9CF1F9381E061EC42E000D3182F82E058
:1002100060EC42E0FBD29091E20094609093E200A7
:10022000212F30E090E02823392320FF02C080E610
:1002300001C080E9AFDF1F91089580910401909182
:100240000501009729F0019790930501809304011F
:100250000895CF93DF93FC0123B18CB1809590E09A
:1002600080739070959587952095207E282B9CB162
:100270009095947088E0EF0119928A95E9F782E0F1
:10028000808327FF02C084E003C024FF04C085E010
:10029000828381E001C080E026FF05C0DF01A80F56
:1002A000B11D36E006C023FF08C0DF01A80FB11D55
:1002B00037E012963C9312978F5F25FF08C0DF014D
:1002C000A80FB11D28E012962C9312978F5F9923E7
:1002D00021F0E80FF11D89E08283DF91CF9108952D
:1002E000282F80FF02C080E301C080E221FD8068EA
:1002F00022FD80644FCF0F931F93DF93CF93CDB731
:10030000DEB729970FB6F894DEBF0FBECDBF809140
:100310001401833009F44BC0843030F4813071F023
:10032000823009F099C07FC08A3009F463C08B30F5
:1003300009F44AC0893009F08FC019C080911301B7
:10034000813A09F089C08E010F5F1F4FC80181DF1C
:100350008091E800877F8093E800C80168E070E042
:1003600099D18091E8008B778093E80075C08091E7
:100370001301813209F070C08091E800877F80937B
:10038000E80005C080911201882309F465C08091BE
:10039000E80082FFF7CF8091F1009091E8009B7711
:1003A0009093E800898769D289859ADF55C080914A
:1003B0001301813A09F050C08091E800877F809353
:1003C000E8008091020140C080911301813209F060
:1003D00043C08091E800877F8093E8004ED221E0FF
:1003E0008091150190911601009709F420E0209367
:1003F000020132C080911301813271F58091E800D1
:10040000877F8093E80039D2809115019091160181
:10041000807056E0969587955A95E1F79093010183
:100420008093000119C080911301813AA9F4809151
:10043000E800877F8093E80080910001909101019E
:1004400096958795969587958093F1008091E80021
:100450008E778093E80011D229960FB6F894DEBF0C
:100460000FBECDBFCF91DF911F910F910895DF9304
:10047000CF93CDB7DEB728970FB6F894DEBF0FBE87
:10048000CDBFCE010196E5DE809100019091010182
:10049000009769F020910401309105012115310583
:1004A00031F4909305018093040181E00EC086E051
:1004B00091E0BE016F5F7F4F48E050E0DDD49C01CA
:1004C00081E02115310509F480E091E09093E90085
:1004D0009091E80095FF17C08823A9F0A6E0B1E04D
:1004E000FE01319688E001900D928150E1F7CE0136
:1004F000019668E070E040E050E06ED08091E80046
:100500008E778093E80028960FB6F894DEBF0FBE72
:10051000CDBFCF91DF91089582E08093E900809173
:10052000E80082FF0CC08091E80085FF03C0809145
:10053000F100D6DE8091E8008B778093E800089583
:1005400080911201843011F492DFE6CF089527DE06
:1005500080E120DE7894F4DF73D4FDCF933089F00E
:10056000943028F4913049F1923061F505C0913210
:10057000D1F0923239F51CC029E230E0E9EEF0E02A
:1005800025C0813041F0813018F08230D9F406C0A6
:10059000E2E1F1E005C0E6E1F1E002C0E0E3F1E014
:1005A000249130E013C029E030E0EBEFF0E00EC022
:1005B0002FE330E0E8E9F0E009C022E130E0E7EDC8
:1005C000F0E004C020E030E0E0E0F0E0DA01119675
:1005D000FC93EE93C90108958F929F92BF92CF92A0
:1005E000DF92EF92FF920F931F93DF93CF930F92BF
:1005F000CDB7DEB7E82E4B018A0199835FD1B82EC3
:1006000099818823C9F5F92E0115110539F0F801F2
:1006100020813181821A930AE20EF31ECC24DD245C
:1006200026C08091E80085FD17C08091E8008E7794
:100630008093E80005D40115110551F0F80180817F
:1006400091818C0D9D1D9183808325E0B22E14C075
:1006500035D1882361F00FC0F70181917F0180932C
:10066000F1000894810891080894C11CD11C8114E0
:100670009104B9F601C0B82E8B2D0F90CF91DF9168
:100680001F910F91FF90EF90DF90CF90BF909F90C0
:100690008F900895282F392FF90180911901909199
:1006A0001A018617970718F4BC0120E037C06115BE
:1006B0007105D9F78091E8008E778093E800F5CF37
:1006C00080911201882309F43FC08530C9F18091DF
:1006D000E80083FD37C08091E80082FD2BC0809147
:1006E000E80080FF1BC08091F2009091F30006C0EB
:1006F00021912093F10061507040019661157105C0
:1007000019F088309105A0F321E08830910509F0B7
:1007100020E08091E8008E778093E80061157105F4
:1007200079F6222369F606C080911201882361F0D0
:10073000853061F08091E80082FFF6CF80E0089577
:1007400083E0089581E0089582E0089583E00895AC
:10075000E82FF92F8091190190911A0186179707B8
:1007600018F4BC0120E038C061157105D9F78091FB
:10077000E8008E778093E800F5CF809112018823FE
:1007800009F440C08530D1F18091E80083FD38C084
:100790008091E80082FD2CC08091E80080FF1CC0A1
:1007A0008091F2009091F30007C024912093F10012
:1007B00031966150704001966115710519F08830CD
:1007C000910598F321E08830910509F020E08091AF
:1007D000E8008E778093E8006115710571F6222399
:1007E00061F606C080911201882361F0853061F0C6
:1007F0008091E80082FFF6CF80E0089583E00895BD
:1008000081E0089582E0089583E00895982F2CC038
:10081000292F2F702093E900981739F07091EC0080
:100820002091ED005091F00003C0242F762F50E06E
:1008300021FF19C03091EB003E7F3093EB003091E7
:10084000ED003D7F3093ED003091EB00316030934F
:10085000EB007093EC002093ED005093F00020919A
:10086000EE0027FF08C09F5F973090F28F70809353
:10087000E90081E0089580E008958091130187FFE9
:1008800013C004C0809112018823B9F08091E80060
:1008900082FFF8CF8091E8008B778093E80008957D
:1008A00080911201882349F08091E80080FFF8CF01
:1008B0008091E8008E778093E80008958091E400AD
:1008C0009091E50044E62091EC0020FF26C02091A5
:1008D000E80020FD16C0209112012223A1F025304E
:1008E000A1F02091EB0025FD12C02091E400309191
:1008F000E5002817390739F3442359F04150C9015D
:10090000E2CF80E0089582E0089583E0089581E0D9
:10091000089584E0089580E008952091E80022FF82
:10092000DACFF9CF0F931F93CF93DF934ED055D0EB
:10093000C8EDD0E088818F7788838881806888833C
:1009400088818F7D8883E7EDF0E0808180688083F7
:1009500019BC1092120110920E0110921001109207
:100960000F0100EE10E0F80180818B7F8083888189
:100970008160888380E060E042E048DFE1EEF0E003
:1009800080818E7F8083E2EEF0E0808181608083D1
:10099000808188608083F80180818E7F8083888158
:1009A00080618883DF91CF911F910F910895E8EDC9
:1009B000F0E080818F7E8083E7EDF0E080818160D0
:1009C000808381E080931101ADCFE8EDF0E080817C
:1009D0008C7F80831092E20008951092DA001092CA
:1009E000E10008951F920F920FB60F920BB60F926F
:1009F00011242F933F934F935F936F937F938F9324
:100A00009F93AF93BF93EF93FF938091E10082FF99
:100A10000AC08091E20082FF06C08091E1008B7FD6
:100A20008093E1000ADC8091DA0080FF1DC0809194
:100A3000D80080FF19C08091DA008E7F8093DA00A1
:100A40008091D90080FF0CC08CE089BD8EE089BD0B
:100A500009B400FEFDCF81E080931201CADB04C01F
:100A600019BC10921201CBDB8091E10080FF18C00D
:100A70008091E20080FF14C08091E2008E7F80931D
:100A8000E2008091E20080618093E2008091D800D2
:100A900080628093D80019BC85E080931201CFD189
:100AA0008091E10084FF2FC08091E20084FF2BC081
:100AB0008CE089BD8EE089BD09B400FEFDCF809138
:100AC000D8008F7D8093D8008091E1008F7E809345
:100AD000E1008091E2008F7E8093E2008091E2004D
:100AE00081608093E20080910E01882311F084E000
:100AF00007C08091E30087FF02C083E001C081E06E
:100B0000809312019CD18091E10083FF22C08091EB
:100B1000E20083FF1EC08091E100877F8093E100A7
:100B200082E08093120110920E018091E1008E7F8D
:100B30008093E1008091E2008E7F8093E2008091BB
:100B4000E20080618093E20080E060E042E05EDEEF
:100B500076D1FF91EF91BF91AF919F918F917F914E
:100B60006F915F914F913F912F910F900BBE0F901E
:100B70000FBE0F901F9018951F93DF93CF93CDB7A3
:100B8000DEB7AC970FB6F894DEBF0FBECDBFE3E182
:100B9000F1E08091F100819321E0EB31F207C9F798
:100BA000AADB8091E80083FF32C18091130120917C
:100BB0001401253009F484C0263040F42130A1F11D
:100BC000213070F0233009F022C12EC0283009F402
:100BD000F0C0293009F4FFC0263009F018C193C0D5
:100BE000803821F0823809F012C108C080910F01CD
:100BF00090911001992371F082600CC080911701CF
:100C00008F708093E9009091EB0081E095FF80E088
:100C10001092E9009091E800977F9093E80080930C
:100C2000F1001092F100D0C0882319F0823009F051
:100C3000EEC090E08F719070009729F0823091059E
:100C400009F0E5C00BC080911501813009F0DFC0CB
:100C5000233009F080E0809310012CC080911501B1
:100C6000882341F5209117012F7009F4D0C02093FB
:100C7000E9008091EB0080FF1DC08091140183305A
:100C800021F48091EB00806213C08091EB008061C1
:100C90008093EB0081E090E002C0880F991F2A95B5
:100CA000E2F78093EA001092EA008091EB008860FE
:100CB0008093EB001092E9008091E800877F87C065
:100CC000882309F0A4C0109115011F778091E300DB
:100CD0008078812B8093E3008091E800877F809368
:100CE000E800CBDD8091E80080FFFCCF8091E3003D
:100CF00080688093E300112311F083E001C082E05B
:100D00008093120184C08058823008F080C08091A6
:100D100015019091160123E08C3D920791F583E037
:100D20008C838AE28B835FB7F894DE01159680E0AE
:100D300090E04EE061E2E42FF0E060935700E49130
:100D400080FF03C0E295EF704F5FEF702E2F30E011
:100D5000EA3018F0295C3F4F02C0205D3F4F2D93D1
:100D60003D9301968431910531F75FBF8091E80092
:100D7000877F8093E800CE0103966AE270E08ADC08
:100D800012C060911701AE014F5F5F4FE7DBBC01FE
:100D9000009709F43CC08091E800877F8093E800C9
:100DA00089819A81D5DC8091E8008B778093E80077
:100DB0002EC0803861F58091E800877F8093E8003D
:100DC00080910E018093F1008091E8008E778093EE
:100DD000E80053DD1CC08823D1F4909115019230B6
:100DE000B0F48091E800877F8093E80090930E0133
:100DF00044DD80910E01882321F48091E30087FF78
:100E000002C084E001C081E080931201FAD9809190
:100E1000E80083FF0AC08091E800877F8093E800A4
:100E20008091EB0080628093EB00AC960FB6F89453
:100E3000DEBF0FBECDBFCF91DF911F910895089502
:100E40001F93809112018823A9F08091E9008F708F
:100E50009091EC0090FF02C010E801C010E0182B48
:100E60001092E9008091E80083FF01C085DE1F70C9
:100E70001093E9001F910895FB01DC0104C08D91DE
:100E80000190801921F441505040C8F7881B990BFC
:060E90000895F894FFCF65
:040E9600F401010062
:00000001FF
